:02000000802E50
:02002B008068EB
:1000300075C90075C800D2ADD2AF9000AD78007917
:10004000007A007B007C007D007EFA7F0AEE75F06E
:100050006484FBACF075F00AA4FB75F00AEC84FC38
:100060002BFD74FF9DFF116C118080FA75CC5775C4
:10007000CD9E85CCCA85CCCBD2CA30CFFDC2CF2293
:1000800075CCA875CD6185CCCA85CCCBD2CA30CF12
:10009000FDC2CF2232C298B2B709B9FAF7E893F598
:1000A00090E8B40F0578007900320809320CCF547B
:0D00B000468726244F040705043C0C343518
:1008000075985075C83475CBFF75CAD922F59930E3
:0D08100099FDC299223098FDC298E5992209
:00000001FF
