:02000000804D31
:10003300900038932208CB50428322204B000204C5
:1000430083220CCF54468726A44F0407D2B3D2B5DC
:1000530075CBFF75CAD975C8347598507800E81107
:1000630033F59030B31630B52420980280F5C2984A
:10007300E599B44902800EB444E9801A7AF011ABD1
:1000830030B30280DE08B80A137800800F7AF011CB
:10009300AB30B50280CD18B8FF027809743028F56B
:0F00A300993099FDC29980B679F0D9FEDAFA2228
:00000001FF
