:040A53000102030495
:03000000020800F3
:100800007581117510007B04780C900A53E493F6FF
:10081000A308DBF97B037E00751100E511B4000429
:100820007810800278111209DA120956C000780196
:10083000120A09D000B8000EC0007E011208A7B845
:10084000002AC0008057B8020FE511B400057511E9
:100850000180C875110080C3E511B401051208A715
:10086000800A78081209A5B8000280317808790C4E
:10087000120A3FE87014780BDB171209DA7B03C009
:1008800000780F120A09D0008013120A26780C7B18
:10089000031209DAC0007802120A09D000780A129D
:0508A00009DA02081650
:030A57000209DAB7
:1009C8000CCF54468726244F0406FF0D8615343570
:1009D800BC059009C8E893F590A810B80102C29226
:0109E80022EC
:100A0900187589107906758D3C758BB0D28E308F2B
:0B0A1900FDC28EC28FD9EFB800E622AC
:1009020078001209DA79007A00C001120956E8C0AB
:10091200007801120A09D000D001FABA0006790B58
:100922007A01801BBA021809B90A027900E9F812A1
:1009320009DAC001C0007801120A09D000D001BA58
:1009420001C7C001C0007801120A09D000D001E934
:02095200F82289
:100A3D0080007A0486F0E4E7B5F0080908DAF57865
:060A4D0001800278002286
:1009A30080007A04E8F9C002C001120902D001D024
:1009B30002B80B097E011208A778008007E8F7093F
:0509C300DAE4780122D6
:1009540080007800790030B50F30B32380F830B3CD
:1009640023803130B507802C78010980F1C001C0A3
:10097400007801120A09D000D001780209801578A4
:10098400020980DFC001C0007801120A09D000D03A
:0F09940001780109B9000280BDB9020278002282
:1008A5008000BE000478088007AF10BF0144780CB3
:1008B5007A04E8F9C001780D1209DA7803120A09F9
:1008C500D001758920758DFD759850D28EC001C0F7
:1008D500023098FDC298E5999430F5993099FDC29A
:1008E50099D002D001F709DAE4C28E780E1209DA3E
:0D08F5008005780F1209DA7803120A092233
:100A240080007589017DFF7CFFD2AFD2A9751001CA
:090A3400758C3C758AB0D28C224D
:06000B0080001209EB3237
:1009E9008000C28C758C3C758AB0D28CBC000ABD63
:1009F900000A751000C28C80061C80031D8000222D
:00000001FF
