:10000000120867E8FB120867E8FA120867E8F912B5
:100010000867120896E87004780B8002780C1208C2
:0D0020000074641208A9780A12080080D349
:10080000B8000575900C805EB801057590CF8056D4
:10081000B80205759054804EB80305759046804621
:10082000B80405759087803EB8050575902680361A
:10083000B80605759024802EB8070575904F802660
:10084000B80805759004801EB809057590068016D5
:10085000B80A057590FF800EB80B0575900D8006DF
:07086000B80C03759086221D
:0A08A900FDFEFFDFFEDEFBDDF8229E
:10086700780012080030B30530B50D80F80812087B
:100877000074501208A980EDE8FC780A1208007489
:0F088700501208A9ECF812080074501208A922A8
:10089600BB010DBA020AB90307B804047801800245
:0308A600780022B5
:00000001FF
