:0409E2000102030407
:03000000020800F3
:100800007581107510007B04780C9009E2E493F672
:10081000A308DBF97B037808120938B8000280319D
:100820007808790C1209CEE87014780BDB171209DE
:10083000897B03C000780F120998D0008013120939
:10084000B5780C7B03120989C0007802120998D090
:0808500000780A12098980BE3C
:0309E6000209897A
:100979000CCF54468726244F0406FF0D86153435BF
:0F098900900979E893F590A810B80102C2922264
:10099800187589017906758C3C758AB0D28C308DB2
:0B09A800FDC28CC28DD9EFB800E62222
:10085800780012098979007A00C0011208ACE8C052
:10086800007801120998D000D001FABA0006790B75
:100878007A01801BBA021809B90A027900E9F8124C
:100888000989C001C0007801120998D000D001BAC6
:1008980001C7C001C0007801120998D000D001E951
:0208A800F82234
:1009CC0080007A0486F0E4E7B5F0080908DAF578D7
:0609DC00018002780022F8
:1009360080007A04E8F9C002C001120858D001D03C
:1009460002B80B071208FB78008007E8F709DAE619
:0309560078012203
:1008AA0080007800790030B50F30B32380F830B378
:1008BA0023803130B507802C78010980F1C001C04E
:1008CA00007801120998D000D001780209801578C1
:1008DA00020980DFC001C0007801120998D000D057
:0F08EA0001780109B9000280BDB902027800222D
:1008F9008000A810B8012B780C7A04E8F9C00178B7
:100909000D1209897803120998D001C001C0021299
:100919000858D002D001E8F709DAF0780E120989EF
:0D0929008005780F120989780312099822C1
:1009B30080007589107DFF7CFFD2AFD2AB7510012B
:0909C300758D3C758BB0D28E22BB
:06001B00800012095B32B7
:100959008000C28E758D3C758BB0D28EBC000ABDED
:10096900000A751000C28E80061C80031D800022BB
:00000001FF
