:0409F40001020304F5
:03000000020800F3
:100800007581107510007B04780C9009F4E493F660
:10081000A308DBF97B03780812094AB8000280318B
:100820007808790C1209E0E87014780BDB171209CC
:100830009B7B03C000780F1209AAD0008013120915
:10084000C7780C7B0312099BC00078021209AAD05A
:0808500000780A12099B80BE2A
:0309F80002099B56
:10098B000CCF54468726244F0406FF0D86153435AD
:0F099B0090098BE893F590A810B80102C2922240
:1009AA00187589107906758D3C758BB0D28E308F8B
:0B09BA00FDC28EC28FD9EFB800E6220C
:10085800780012099B79007A00C0011208ACE8C040
:100868000078011209AAD000D001FABA0006790B63
:100878007A01801BBA021809B90A027900E9F8124C
:10088800099BC001C00078011209AAD000D001BAA2
:1008980001C7C001C00078011209AAD000D001E93F
:0208A800F82234
:1009DE0080007A0486F0E4E7B5F0080908DAF578C5
:0609EE00018002780022E6
:1009480080007A04E8F9C002C001120858D001D02A
:1009580002B80B071208FB78008007E8F709DAE607
:03096800780122F1
:1008AA0080007800790030B50F30B32380F830B378
:1008BA0023803130B507802C78010980F1C001C04E
:1008CA000078011209AAD000D001780209801578AF
:1008DA00020980DFC001C00078011209AAD000D045
:0F08EA0001780109B9000280BDB902027800222D
:1008F9008000A810B8013D780C7A04E8F9C00178A5
:100909000D12099B78031209AAD001758920758DEA
:10091900FD759850D28EC001C0023098FDC298E58D
:10092900999430D002D001F709DAEBC28E780E1211
:0F093900099B8005780F12099B78031209AA22E7
:1009C50080007589017DFF7CFFD2AFD2A97510012A
:0909D500758C3C758AB0D28C22AD
:06000B00800012096D32B5
:10096B008000C28C758C3C758AB0D28CBC000ABDE1
:10097B00000A751000C28C80061C80031D800022AB
:00000001FF
