:04093D0001020304AC
:10000000800075810F7B04780C90093DE493F6A382
:1000100008DBF97B0378081208D4B80002802E7838
:1000200008790C120929E87014780BDB1412091FE7
:100030007B03C000780F1208F5D0008010780C7B8D
:100040000312091FC00078031208F5D000780A12C5
:04005000091F80C143
:0309410002091F89
:100910000CCF54468726244F0406FF0D82153490D1
:070920000910E893F5902295
:1008F500187589017906758C3C758AB0D28C308D56
:0B090500FDC28CC28DD9EFB800E622C5
:10080000780012091F79007A00C001120854E8C06C
:100810000078011208F5D000D001FABA0006790B71
:100820007A01801BBA021809B90A027900E9F812A4
:10083000091FC001C00078011208F5D000D001BA2C
:1008400001C7C001C00078011208F5D000D001E94D
:02085000F8228C
:1009270080007A0486F0E4E7B5F0080908DAF5787C
:060937000180027800229D
:1008D20080007A04E8F9C002C001120800D001D0F9
:1008E20002B80B071208A378008007E8F709DAE6D6
:0308F20078012268
:1008520080007800790030B50F30B32380F830B3D0
:1008620023803130B507802C78010980F1C001C0A6
:100872000078011208F5D000D001780209801578BD
:10088200020980DFC001C00078011208F5D000D053
:0F08920001780109B9000280BDB9020278002285
:1008A100800078007A04E8F9C001780D12091F78F8
:1008B100031208F5D001C001C002120800D002D015
:1008C10001E8F709DAF0780E12091F78031208F52A
:0108D1002204
:00000001FF
