:040A55000102030493
:03000000020800F3
:100800007581117510007B04780C900A55E493F6FD
:10081000A308DBF97B03D2AF7E00751100E511B4AC
:1008200000047810800278111209DC120958C00007
:100830007801120A0BD000B8000EC0007E01120829
:10084000A9B8002AC0008057B8020FE511B400050E
:1008500075110180C875110080C3E511B40105123E
:1008600008A9800A78081209A7B800028031780820
:10087000790C120A41E87014780BDB171209DC7B43
:1008800003C000780F120A0BD0008013120A2878D8
:100890000C7B031209DCC0007802120A0BD000782E
:0708A0000A1209DC02081630
:030A59000209DCB3
:1009CA000CCF54468726244F0406FF0D861534356E
:1009DA00BC059009CAE893F590A810B80102C29222
:0109EA0022EA
:100A0B00187589107906758D3C758BB0D28E308F29
:0B0A1B00FDC28EC28FD9EFB800E622AA
:1009040078001209DC79007A00C001120958E8C0A5
:10091400007801120A0BD000D001FABA0006790B54
:100924007A01801BBA021809B90A027900E9F8129F
:1009340009DCC001C0007801120A0BD000D001BA52
:1009440001C7C001C0007801120A0BD000D001E930
:02095400F82287
:100A3F0080007A0486F0E4E7B5F0080908DAF57863
:060A4F0001800278002284
:1009A50080007A04E8F9C002C001120904D001D020
:1009B50002B80B097E011208A978008007E8F7093B
:0509C500DAE4780122D4
:1009560080007800790030B50F30B32380F830B3CB
:1009660023803130B507802C78010980F1C001C0A1
:10097600007801120A0BD000D001780209801578A0
:10098600020980DFC001C0007801120A0BD000D036
:0F09960001780109B9000280BDB9020278002280
:1008A7008000BE000478088007AF10BF0144780CB1
:1008B7007A04E8F9C001780D1209DC7803120A0BF3
:1008C700D001758920758DFD759850D28EC001C0F5
:1008D700023098FDC298E5999430F5993099FDC298
:1008E70099D002D001F709DAE4C28E780E1209DC3A
:0D08F7008005780F1209DC7803120A0B222D
:100A260080007589017DFF7CFFD2AFD2A9751001C8
:090A3600758C3C758AB0D28C224B
:06000B0080001209ED3235
:1009EB008000C28C758C3C758AB0D28CBC000ABD61
:1009FB00000A751000C28C80061C80031D8000222B
:00000001FF
